{
	"contracts/FundMe.sol": {
		"FundMe": {
			"abi": [
				{
					"inputs": [],
					"stateMutability": "nonpayable",
					"type": "constructor"
				},
				{
					"inputs": [],
					"name": "FundMe__NotOwner",
					"type": "error"
				},
				{
					"stateMutability": "payable",
					"type": "fallback"
				},
				{
					"inputs": [],
					"name": "MINIMUM_USD",
					"outputs": [
						{
							"internalType": "uint256",
							"name": "",
							"type": "uint256"
						}
					],
					"stateMutability": "view",
					"type": "function"
				},
				{
					"inputs": [],
					"name": "fund",
					"outputs": [],
					"stateMutability": "payable",
					"type": "function"
				},
				{
					"inputs": [
						{
							"internalType": "address",
							"name": "",
							"type": "address"
						}
					],
					"name": "s_addressToAmountFunded",
					"outputs": [
						{
							"internalType": "uint256",
							"name": "",
							"type": "uint256"
						}
					],
					"stateMutability": "view",
					"type": "function"
				},
				{
					"inputs": [],
					"name": "withdraw",
					"outputs": [],
					"stateMutability": "nonpayable",
					"type": "function"
				},
				{
					"stateMutability": "payable",
					"type": "receive"
				}
			],
			"devdoc": {
				"kind": "dev",
				"methods": {},
				"version": 1
			},
			"evm": {
				"assembly": "    /* \"contracts/FundMe.sol\":256:1574  contract FundMe {... */\n  mstore(0x40, 0xa0)\n    /* \"contracts/FundMe.sol\":740:849  constructor() {... */\n  callvalue\n  dup1\n  iszero\n  tag_1\n  jumpi\n  0x00\n  dup1\n  revert\ntag_1:\n  pop\n    /* \"contracts/FundMe.sol\":800:811  s_priceFeed */\n  0x02\n  0x00\n  swap1\n  sload\n  swap1\n  0x0100\n  exp\n  swap1\n  div\n  0xffffffffffffffffffffffffffffffffffffffff\n  and\n    /* \"contracts/FundMe.sol\":764:775  s_priceFeed */\n  0x02\n  0x00\n    /* \"contracts/FundMe.sol\":764:812  s_priceFeed = AggregatorV3Interface(s_priceFeed) */\n  0x0100\n  exp\n  dup2\n  sload\n  dup2\n  0xffffffffffffffffffffffffffffffffffffffff\n  mul\n  not\n  and\n  swap1\n  dup4\n  0xffffffffffffffffffffffffffffffffffffffff\n  and\n  mul\n  or\n  swap1\n  sstore\n  pop\n    /* \"contracts/FundMe.sol\":832:842  msg.sender */\n  caller\n    /* \"contracts/FundMe.sol\":822:842  i_owner = msg.sender */\n  0xffffffffffffffffffffffffffffffffffffffff\n  and\n  0x80\n  dup2\n  0xffffffffffffffffffffffffffffffffffffffff\n  and\n  dup2\n  mstore\n  pop\n  pop\n    /* \"contracts/FundMe.sol\":256:1574  contract FundMe {... */\n  mload(0x80)\n  codecopy(0x00, dataOffset(sub_0), dataSize(sub_0))\n  0x00\n  assignImmutable(\"0x5ae62207e7adee0b793bf869601474e77943fa4d9e3e0420f34d788e59bc19bd\")\n  return(0x00, dataSize(sub_0))\nstop\n\nsub_0: assembly {\n        /* \"contracts/FundMe.sol\":256:1574  contract FundMe {... */\n      mstore(0x40, 0x80)\n      jumpi(tag_1, lt(calldatasize, 0x04))\n      shr(0xe0, calldataload(0x00))\n      dup1\n      0x1bf6132d\n      eq\n      tag_3\n      jumpi\n      dup1\n      0x3ccfd60b\n      eq\n      tag_4\n      jumpi\n      dup1\n      0x6b69a592\n      eq\n      tag_5\n      jumpi\n      dup1\n      0xb60d4288\n      eq\n      tag_6\n      jumpi\n      jump(tag_2)\n    tag_1:\n      jumpi(tag_2, calldatasize)\n        /* \"contracts/FundMe.sol\":1502:1508  fund() */\n      tag_9\n        /* \"contracts/FundMe.sol\":1502:1506  fund */\n      tag_10\n        /* \"contracts/FundMe.sol\":1502:1508  fund() */\n      jump\t// in\n    tag_9:\n        /* \"contracts/FundMe.sol\":256:1574  contract FundMe {... */\n      stop\n    tag_2:\n        /* \"contracts/FundMe.sol\":1559:1565  fund() */\n      tag_13\n        /* \"contracts/FundMe.sol\":1559:1563  fund */\n      tag_10\n        /* \"contracts/FundMe.sol\":1559:1565  fund() */\n      jump\t// in\n    tag_13:\n        /* \"contracts/FundMe.sol\":256:1574  contract FundMe {... */\n      stop\n        /* \"contracts/FundMe.sol\":438:496  mapping(address => uint256) public s_addressToAmountFunded */\n    tag_3:\n      callvalue\n      dup1\n      iszero\n      tag_14\n      jumpi\n      0x00\n      dup1\n      revert\n    tag_14:\n      pop\n      tag_15\n      0x04\n      dup1\n      calldatasize\n      sub\n      dup2\n      add\n      swap1\n      tag_16\n      swap2\n      swap1\n      tag_17\n      jump\t// in\n    tag_16:\n      tag_18\n      jump\t// in\n    tag_15:\n      mload(0x40)\n      tag_19\n      swap2\n      swap1\n      tag_20\n      jump\t// in\n    tag_19:\n      mload(0x40)\n      dup1\n      swap2\n      sub\n      swap1\n      return\n        /* \"contracts/FundMe.sol\":1082:1459  function withdraw() public onlyOwner {... */\n    tag_4:\n      callvalue\n      dup1\n      iszero\n      tag_21\n      jumpi\n      0x00\n      dup1\n      revert\n    tag_21:\n      pop\n      tag_22\n      tag_23\n      jump\t// in\n    tag_22:\n      stop\n        /* \"contracts/FundMe.sol\":317:359  uint256 public constant MINIMUM_USD = 5e18 */\n    tag_5:\n      callvalue\n      dup1\n      iszero\n      tag_24\n      jumpi\n      0x00\n      dup1\n      revert\n    tag_24:\n      pop\n      tag_25\n      tag_26\n      jump\t// in\n    tag_25:\n      mload(0x40)\n      tag_27\n      swap2\n      swap1\n      tag_20\n      jump\t// in\n    tag_27:\n      mload(0x40)\n      dup1\n      swap2\n      sub\n      swap1\n      return\n        /* \"contracts/FundMe.sol\":855:1076  function fund() public payable {... */\n    tag_6:\n      tag_28\n      tag_10\n      jump\t// in\n    tag_28:\n      stop\n    tag_10:\n        /* \"contracts/FundMe.sol\":355:359  5e18 */\n      0x4563918244f40000\n        /* \"contracts/FundMe.sol\":904:933  msg.value.getConversionRate() */\n      tag_30\n        /* \"contracts/FundMe.sol\":904:913  msg.value */\n      callvalue\n        /* \"contracts/FundMe.sol\":904:931  msg.value.getConversionRate */\n      tag_31\n        /* \"contracts/FundMe.sol\":904:933  msg.value.getConversionRate() */\n      jump\t// in\n    tag_30:\n        /* \"contracts/FundMe.sol\":904:948  msg.value.getConversionRate() >= MINIMUM_USD */\n      lt\n      iszero\n        /* \"contracts/FundMe.sol\":896:975  require(msg.value.getConversionRate() >= MINIMUM_USD, \"didn't send enough ETH\") */\n      tag_32\n      jumpi\n      mload(0x40)\n      0x08c379a000000000000000000000000000000000000000000000000000000000\n      dup2\n      mstore\n      0x04\n      add\n      tag_33\n      swap1\n      tag_34\n      jump\t// in\n    tag_33:\n      mload(0x40)\n      dup1\n      swap2\n      sub\n      swap1\n      revert\n    tag_32:\n        /* \"contracts/FundMe.sol\":1024:1033  msg.value */\n      callvalue\n        /* \"contracts/FundMe.sol\":985:1008  s_addressToAmountFunded */\n      0x01\n        /* \"contracts/FundMe.sol\":985:1020  s_addressToAmountFunded[msg.sender] */\n      0x00\n        /* \"contracts/FundMe.sol\":1009:1019  msg.sender */\n      caller\n        /* \"contracts/FundMe.sol\":985:1020  s_addressToAmountFunded[msg.sender] */\n      0xffffffffffffffffffffffffffffffffffffffff\n      and\n      0xffffffffffffffffffffffffffffffffffffffff\n      and\n      dup2\n      mstore\n      0x20\n      add\n      swap1\n      dup2\n      mstore\n      0x20\n      add\n      0x00\n      keccak256\n      0x00\n        /* \"contracts/FundMe.sol\":985:1033  s_addressToAmountFunded[msg.sender] += msg.value */\n      dup3\n      dup3\n      sload\n      tag_35\n      swap2\n      swap1\n      tag_36\n      jump\t// in\n    tag_35:\n      swap3\n      pop\n      pop\n      dup2\n      swap1\n      sstore\n      pop\n        /* \"contracts/FundMe.sol\":1043:1052  s_funders */\n      0x00\n        /* \"contracts/FundMe.sol\":1058:1068  msg.sender */\n      caller\n        /* \"contracts/FundMe.sol\":1043:1069  s_funders.push(msg.sender) */\n      swap1\n      dup1\n      0x01\n      dup2\n      sload\n      add\n      dup1\n      dup3\n      sstore\n      dup1\n      swap2\n      pop\n      pop\n      0x01\n      swap1\n      sub\n      swap1\n      0x00\n      mstore\n      keccak256(0x00, 0x20)\n      add\n      0x00\n      swap1\n      swap2\n      swap1\n      swap2\n      swap1\n      swap2\n      0x0100\n      exp\n      dup2\n      sload\n      dup2\n      0xffffffffffffffffffffffffffffffffffffffff\n      mul\n      not\n      and\n      swap1\n      dup4\n      0xffffffffffffffffffffffffffffffffffffffff\n      and\n      mul\n      or\n      swap1\n      sstore\n      pop\n        /* \"contracts/FundMe.sol\":855:1076  function fund() public payable {... */\n      jump\t// out\n        /* \"contracts/FundMe.sol\":438:496  mapping(address => uint256) public s_addressToAmountFunded */\n    tag_18:\n      mstore(0x20, 0x01)\n      dup1\n      0x00\n      mstore\n      keccak256(0x00, 0x40)\n      0x00\n      swap2\n      pop\n      swap1\n      pop\n      sload\n      dup2\n      jump\t// out\n        /* \"contracts/FundMe.sol\":1082:1459  function withdraw() public onlyOwner {... */\n    tag_23:\n        /* \"contracts/FundMe.sol\":642:649  i_owner */\n      immutable(\"0x5ae62207e7adee0b793bf869601474e77943fa4d9e3e0420f34d788e59bc19bd\")\n        /* \"contracts/FundMe.sol\":628:649  msg.sender != i_owner */\n      0xffffffffffffffffffffffffffffffffffffffff\n      and\n        /* \"contracts/FundMe.sol\":628:638  msg.sender */\n      caller\n        /* \"contracts/FundMe.sol\":628:649  msg.sender != i_owner */\n      0xffffffffffffffffffffffffffffffffffffffff\n      and\n      eq\n        /* \"contracts/FundMe.sol\":624:676  if (msg.sender != i_owner) revert FundMe__NotOwner() */\n      tag_39\n      jumpi\n        /* \"contracts/FundMe.sol\":658:676  FundMe__NotOwner() */\n      mload(0x40)\n      0x579610db00000000000000000000000000000000000000000000000000000000\n      dup2\n      mstore\n      0x04\n      add\n      mload(0x40)\n      dup1\n      swap2\n      sub\n      swap1\n      revert\n        /* \"contracts/FundMe.sol\":624:676  if (msg.sender != i_owner) revert FundMe__NotOwner() */\n    tag_39:\n        /* \"contracts/FundMe.sol\":1133:1142  uint256 i */\n      0x00\n        /* \"contracts/FundMe.sol\":1129:1278  for(uint256 i = 0; i < s_funders.length; i++) {... */\n    tag_41:\n        /* \"contracts/FundMe.sol\":1152:1161  s_funders */\n      0x00\n        /* \"contracts/FundMe.sol\":1152:1168  s_funders.length */\n      dup1\n      sload\n      swap1\n      pop\n        /* \"contracts/FundMe.sol\":1148:1149  i */\n      dup2\n        /* \"contracts/FundMe.sol\":1148:1168  i < s_funders.length */\n      lt\n        /* \"contracts/FundMe.sol\":1129:1278  for(uint256 i = 0; i < s_funders.length; i++) {... */\n      iszero\n      tag_42\n      jumpi\n        /* \"contracts/FundMe.sol\":1189:1203  address funder */\n      0x00\n        /* \"contracts/FundMe.sol\":1206:1215  s_funders */\n      dup1\n        /* \"contracts/FundMe.sol\":1216:1217  i */\n      dup3\n        /* \"contracts/FundMe.sol\":1206:1218  s_funders[i] */\n      dup2\n      sload\n      dup2\n      lt\n      tag_44\n      jumpi\n      tag_45\n      tag_46\n      jump\t// in\n    tag_45:\n    tag_44:\n      swap1\n      0x00\n      mstore\n      keccak256(0x00, 0x20)\n      add\n      0x00\n      swap1\n      sload\n      swap1\n      0x0100\n      exp\n      swap1\n      div\n      0xffffffffffffffffffffffffffffffffffffffff\n      and\n        /* \"contracts/FundMe.sol\":1189:1218  address funder = s_funders[i] */\n      swap1\n      pop\n        /* \"contracts/FundMe.sol\":1266:1267  0 */\n      0x00\n        /* \"contracts/FundMe.sol\":1232:1255  s_addressToAmountFunded */\n      0x01\n        /* \"contracts/FundMe.sol\":1232:1263  s_addressToAmountFunded[funder] */\n      0x00\n        /* \"contracts/FundMe.sol\":1256:1262  funder */\n      dup4\n        /* \"contracts/FundMe.sol\":1232:1263  s_addressToAmountFunded[funder] */\n      0xffffffffffffffffffffffffffffffffffffffff\n      and\n      0xffffffffffffffffffffffffffffffffffffffff\n      and\n      dup2\n      mstore\n      0x20\n      add\n      swap1\n      dup2\n      mstore\n      0x20\n      add\n      0x00\n      keccak256\n        /* \"contracts/FundMe.sol\":1232:1267  s_addressToAmountFunded[funder] = 0 */\n      dup2\n      swap1\n      sstore\n      pop\n        /* \"contracts/FundMe.sol\":1175:1278  {... */\n      pop\n        /* \"contracts/FundMe.sol\":1170:1173  i++ */\n      dup1\n      dup1\n      0x01\n      add\n      swap2\n      pop\n      pop\n        /* \"contracts/FundMe.sol\":1129:1278  for(uint256 i = 0; i < s_funders.length; i++) {... */\n      jump(tag_41)\n    tag_42:\n      pop\n        /* \"contracts/FundMe.sol\":1314:1315  0 */\n      0x00\n        /* \"contracts/FundMe.sol\":1300:1316  new address[](0) */\n      0xffffffffffffffff\n      dup2\n      gt\n      iszero\n      tag_48\n      jumpi\n      tag_49\n      tag_50\n      jump\t// in\n    tag_49:\n    tag_48:\n      mload(0x40)\n      swap1\n      dup1\n      dup3\n      mstore\n      dup1\n      0x20\n      mul\n      0x20\n      add\n      dup3\n      add\n      0x40\n      mstore\n      dup1\n      iszero\n      tag_51\n      jumpi\n      dup2\n      0x20\n      add\n      0x20\n      dup3\n      mul\n      dup1\n      calldatasize\n      dup4\n      calldatacopy\n      dup1\n      dup3\n      add\n      swap2\n      pop\n      pop\n      swap1\n      pop\n    tag_51:\n      pop\n        /* \"contracts/FundMe.sol\":1288:1297  s_funders */\n      0x00\n        /* \"contracts/FundMe.sol\":1288:1316  s_funders = new address[](0) */\n      swap1\n      dup1\n      mload\n      swap1\n      0x20\n      add\n      swap1\n      tag_52\n      swap3\n      swap2\n      swap1\n      tag_53\n      jump\t// in\n    tag_52:\n      pop\n        /* \"contracts/FundMe.sol\":1328:1344  bool callSuccess */\n      0x00\n        /* \"contracts/FundMe.sol\":1357:1367  msg.sender */\n      caller\n        /* \"contracts/FundMe.sol\":1349:1373  payable(msg.sender).call */\n      0xffffffffffffffffffffffffffffffffffffffff\n      and\n        /* \"contracts/FundMe.sol\":1381:1402  address(this).balance */\n      selfbalance\n        /* \"contracts/FundMe.sol\":1349:1407  payable(msg.sender).call{value: address(this).balance}(\"\") */\n      mload(0x40)\n      tag_54\n      swap1\n      tag_55\n      jump\t// in\n    tag_54:\n      0x00\n      mload(0x40)\n      dup1\n      dup4\n      sub\n      dup2\n      dup6\n      dup8\n      gas\n      call\n      swap3\n      pop\n      pop\n      pop\n      returndatasize\n      dup1\n      0x00\n      dup2\n      eq\n      tag_58\n      jumpi\n      mload(0x40)\n      swap2\n      pop\n      and(add(returndatasize, 0x3f), not(0x1f))\n      dup3\n      add\n      0x40\n      mstore\n      returndatasize\n      dup3\n      mstore\n      returndatasize\n      0x00\n      0x20\n      dup5\n      add\n      returndatacopy\n      jump(tag_57)\n    tag_58:\n      0x60\n      swap2\n      pop\n    tag_57:\n      pop\n        /* \"contracts/FundMe.sol\":1327:1407  (bool callSuccess,) = payable(msg.sender).call{value: address(this).balance}(\"\") */\n      pop\n      swap1\n      pop\n        /* \"contracts/FundMe.sol\":1425:1436  callSuccess */\n      dup1\n        /* \"contracts/FundMe.sol\":1417:1452  require(callSuccess, \"Call failed\") */\n      tag_59\n      jumpi\n      mload(0x40)\n      0x08c379a000000000000000000000000000000000000000000000000000000000\n      dup2\n      mstore\n      0x04\n      add\n      tag_60\n      swap1\n      tag_61\n      jump\t// in\n    tag_60:\n      mload(0x40)\n      dup1\n      swap2\n      sub\n      swap1\n      revert\n    tag_59:\n        /* \"contracts/FundMe.sol\":1119:1459  {... */\n      pop\n        /* \"contracts/FundMe.sol\":1082:1459  function withdraw() public onlyOwner {... */\n      jump\t// out\n        /* \"contracts/FundMe.sol\":317:359  uint256 public constant MINIMUM_USD = 5e18 */\n    tag_26:\n        /* \"contracts/FundMe.sol\":355:359  5e18 */\n      0x4563918244f40000\n        /* \"contracts/FundMe.sol\":317:359  uint256 public constant MINIMUM_USD = 5e18 */\n      dup2\n      jump\t// out\n        /* \"contracts/PriceConverter.sol\":476:728  function getConversionRate(uint256 ethAmount) internal view returns (uint256) {... */\n    tag_31:\n        /* \"contracts/PriceConverter.sol\":545:552  uint256 */\n      0x00\n        /* \"contracts/PriceConverter.sol\":564:580  uint256 ethPrice */\n      dup1\n        /* \"contracts/PriceConverter.sol\":583:593  getPrice() */\n      tag_63\n        /* \"contracts/PriceConverter.sol\":583:591  getPrice */\n      tag_64\n        /* \"contracts/PriceConverter.sol\":583:593  getPrice() */\n      jump\t// in\n    tag_63:\n        /* \"contracts/PriceConverter.sol\":564:593  uint256 ethPrice = getPrice() */\n      swap1\n      pop\n        /* \"contracts/PriceConverter.sol\":603:625  uint256 ethAmountInUsd */\n      0x00\n        /* \"contracts/PriceConverter.sol\":653:657  1e18 */\n      0x0de0b6b3a7640000\n        /* \"contracts/PriceConverter.sol\":640:649  ethAmount */\n      dup5\n        /* \"contracts/PriceConverter.sol\":629:637  ethPrice */\n      dup4\n        /* \"contracts/PriceConverter.sol\":629:649  ethPrice * ethAmount */\n      tag_65\n      swap2\n      swap1\n      tag_66\n      jump\t// in\n    tag_65:\n        /* \"contracts/PriceConverter.sol\":628:657  (ethPrice * ethAmount) / 1e18 */\n      tag_67\n      swap2\n      swap1\n      tag_68\n      jump\t// in\n    tag_67:\n        /* \"contracts/PriceConverter.sol\":603:657  uint256 ethAmountInUsd = (ethPrice * ethAmount) / 1e18 */\n      swap1\n      pop\n        /* \"contracts/PriceConverter.sol\":707:721  ethAmountInUsd */\n      dup1\n        /* \"contracts/PriceConverter.sol\":700:721  return ethAmountInUsd */\n      swap3\n      pop\n      pop\n      pop\n        /* \"contracts/PriceConverter.sol\":476:728  function getConversionRate(uint256 ethAmount) internal view returns (uint256) {... */\n      swap2\n      swap1\n      pop\n      jump\t// out\n        /* \"contracts/PriceConverter.sol\":204:470  function getPrice() internal view returns (uint256) {... */\n    tag_64:\n        /* \"contracts/PriceConverter.sol\":247:254  uint256 */\n      0x00\n        /* \"contracts/PriceConverter.sol\":266:297  AggregatorV3Interface priceFeed */\n      dup1\n        /* \"contracts/PriceConverter.sol\":322:364  0x694AA1769357215DE4FAC081bf1f309aDC325306 */\n      0x694aa1769357215de4fac081bf1f309adc325306\n        /* \"contracts/PriceConverter.sol\":266:365  AggregatorV3Interface priceFeed = AggregatorV3Interface(0x694AA1769357215DE4FAC081bf1f309aDC325306) */\n      swap1\n      pop\n        /* \"contracts/PriceConverter.sol\":377:390  int256 answer */\n      0x00\n        /* \"contracts/PriceConverter.sol\":397:406  priceFeed */\n      dup2\n        /* \"contracts/PriceConverter.sol\":397:422  priceFeed.latestRoundData */\n      0xffffffffffffffffffffffffffffffffffffffff\n      and\n      0xfeaf968c\n        /* \"contracts/PriceConverter.sol\":397:424  priceFeed.latestRoundData() */\n      mload(0x40)\n      dup2\n      0xffffffff\n      and\n      0xe0\n      shl\n      dup2\n      mstore\n      0x04\n      add\n      0xa0\n      mload(0x40)\n      dup1\n      dup4\n      sub\n      dup2\n      dup7\n      gas\n      staticcall\n      iszero\n      dup1\n      iszero\n      tag_71\n      jumpi\n      returndatasize\n      0x00\n      dup1\n      returndatacopy\n      revert(0x00, returndatasize)\n    tag_71:\n      pop\n      pop\n      pop\n      pop\n      mload(0x40)\n      returndatasize\n      not(0x1f)\n      0x1f\n      dup3\n      add\n      and\n      dup3\n      add\n      dup1\n      0x40\n      mstore\n      pop\n      dup2\n      add\n      swap1\n      tag_72\n      swap2\n      swap1\n      tag_73\n      jump\t// in\n    tag_72:\n        /* \"contracts/PriceConverter.sol\":375:424  (,int256 answer,,,) = priceFeed.latestRoundData() */\n      pop\n      pop\n      pop\n      swap2\n      pop\n      pop\n        /* \"contracts/PriceConverter.sol\":458:462  1e10 */\n      0x02540be400\n        /* \"contracts/PriceConverter.sol\":449:455  answer */\n      dup2\n        /* \"contracts/PriceConverter.sol\":449:462  answer * 1e10 */\n      tag_74\n      swap2\n      swap1\n      tag_75\n      jump\t// in\n    tag_74:\n        /* \"contracts/PriceConverter.sol\":434:463  return uint256(answer * 1e10) */\n      swap3\n      pop\n      pop\n      pop\n        /* \"contracts/PriceConverter.sol\":204:470  function getPrice() internal view returns (uint256) {... */\n      swap1\n      jump\t// out\n    tag_53:\n      dup3\n      dup1\n      sload\n      dup3\n      dup3\n      sstore\n      swap1\n      0x00\n      mstore\n      keccak256(0x00, 0x20)\n      swap1\n      dup2\n      add\n      swap3\n      dup3\n      iszero\n      tag_76\n      jumpi\n      swap2\n      0x20\n      mul\n      dup3\n      add\n    tag_77:\n      dup3\n      dup2\n      gt\n      iszero\n      tag_78\n      jumpi\n      dup3\n      mload\n      dup3\n      exp(0x0100, 0x00)\n      dup2\n      sload\n      dup2\n      0xffffffffffffffffffffffffffffffffffffffff\n      mul\n      not\n      and\n      swap1\n      dup4\n      0xffffffffffffffffffffffffffffffffffffffff\n      and\n      mul\n      or\n      swap1\n      sstore\n      pop\n      swap2\n      0x20\n      add\n      swap2\n      swap1\n      0x01\n      add\n      swap1\n      jump(tag_77)\n    tag_78:\n    tag_76:\n      pop\n      swap1\n      pop\n      tag_79\n      swap2\n      swap1\n      tag_80\n      jump\t// in\n    tag_79:\n      pop\n      swap1\n      jump\t// out\n    tag_80:\n    tag_81:\n      dup1\n      dup3\n      gt\n      iszero\n      tag_82\n      jumpi\n      0x00\n      dup2\n      0x00\n      swap1\n      sstore\n      pop\n      0x01\n      add\n      jump(tag_81)\n    tag_82:\n      pop\n      swap1\n      jump\t// out\n        /* \"#utility.yul\":88:205   */\n    tag_84:\n        /* \"#utility.yul\":197:198   */\n      0x00\n        /* \"#utility.yul\":194:195   */\n      dup1\n        /* \"#utility.yul\":187:199   */\n      revert\n        /* \"#utility.yul\":334:460   */\n    tag_86:\n        /* \"#utility.yul\":371:378   */\n      0x00\n        /* \"#utility.yul\":411:453   */\n      0xffffffffffffffffffffffffffffffffffffffff\n        /* \"#utility.yul\":404:409   */\n      dup3\n        /* \"#utility.yul\":400:454   */\n      and\n        /* \"#utility.yul\":389:454   */\n      swap1\n      pop\n        /* \"#utility.yul\":334:460   */\n      swap2\n      swap1\n      pop\n      jump\t// out\n        /* \"#utility.yul\":466:562   */\n    tag_87:\n        /* \"#utility.yul\":503:510   */\n      0x00\n        /* \"#utility.yul\":532:556   */\n      tag_116\n        /* \"#utility.yul\":550:555   */\n      dup3\n        /* \"#utility.yul\":532:556   */\n      tag_86\n      jump\t// in\n    tag_116:\n        /* \"#utility.yul\":521:556   */\n      swap1\n      pop\n        /* \"#utility.yul\":466:562   */\n      swap2\n      swap1\n      pop\n      jump\t// out\n        /* \"#utility.yul\":568:690   */\n    tag_88:\n        /* \"#utility.yul\":641:665   */\n      tag_118\n        /* \"#utility.yul\":659:664   */\n      dup2\n        /* \"#utility.yul\":641:665   */\n      tag_87\n      jump\t// in\n    tag_118:\n        /* \"#utility.yul\":634:639   */\n      dup2\n        /* \"#utility.yul\":631:666   */\n      eq\n        /* \"#utility.yul\":621:684   */\n      tag_119\n      jumpi\n        /* \"#utility.yul\":680:681   */\n      0x00\n        /* \"#utility.yul\":677:678   */\n      dup1\n        /* \"#utility.yul\":670:682   */\n      revert\n        /* \"#utility.yul\":621:684   */\n    tag_119:\n        /* \"#utility.yul\":568:690   */\n      pop\n      jump\t// out\n        /* \"#utility.yul\":696:835   */\n    tag_89:\n        /* \"#utility.yul\":742:747   */\n      0x00\n        /* \"#utility.yul\":780:786   */\n      dup2\n        /* \"#utility.yul\":767:787   */\n      calldataload\n        /* \"#utility.yul\":758:787   */\n      swap1\n      pop\n        /* \"#utility.yul\":796:829   */\n      tag_121\n        /* \"#utility.yul\":823:828   */\n      dup2\n        /* \"#utility.yul\":796:829   */\n      tag_88\n      jump\t// in\n    tag_121:\n        /* \"#utility.yul\":696:835   */\n      swap3\n      swap2\n      pop\n      pop\n      jump\t// out\n        /* \"#utility.yul\":841:1170   */\n    tag_17:\n        /* \"#utility.yul\":900:906   */\n      0x00\n        /* \"#utility.yul\":949:951   */\n      0x20\n        /* \"#utility.yul\":937:946   */\n      dup3\n        /* \"#utility.yul\":928:935   */\n      dup5\n        /* \"#utility.yul\":924:947   */\n      sub\n        /* \"#utility.yul\":920:952   */\n      slt\n        /* \"#utility.yul\":917:1036   */\n      iszero\n      tag_123\n      jumpi\n        /* \"#utility.yul\":955:1034   */\n      tag_124\n      tag_84\n      jump\t// in\n    tag_124:\n        /* \"#utility.yul\":917:1036   */\n    tag_123:\n        /* \"#utility.yul\":1075:1076   */\n      0x00\n        /* \"#utility.yul\":1100:1153   */\n      tag_125\n        /* \"#utility.yul\":1145:1152   */\n      dup5\n        /* \"#utility.yul\":1136:1142   */\n      dup3\n        /* \"#utility.yul\":1125:1134   */\n      dup6\n        /* \"#utility.yul\":1121:1143   */\n      add\n        /* \"#utility.yul\":1100:1153   */\n      tag_89\n      jump\t// in\n    tag_125:\n        /* \"#utility.yul\":1090:1153   */\n      swap2\n      pop\n        /* \"#utility.yul\":1046:1163   */\n      pop\n        /* \"#utility.yul\":841:1170   */\n      swap3\n      swap2\n      pop\n      pop\n      jump\t// out\n        /* \"#utility.yul\":1176:1253   */\n    tag_90:\n        /* \"#utility.yul\":1213:1220   */\n      0x00\n        /* \"#utility.yul\":1242:1247   */\n      dup2\n        /* \"#utility.yul\":1231:1247   */\n      swap1\n      pop\n        /* \"#utility.yul\":1176:1253   */\n      swap2\n      swap1\n      pop\n      jump\t// out\n        /* \"#utility.yul\":1259:1377   */\n    tag_91:\n        /* \"#utility.yul\":1346:1370   */\n      tag_128\n        /* \"#utility.yul\":1364:1369   */\n      dup2\n        /* \"#utility.yul\":1346:1370   */\n      tag_90\n      jump\t// in\n    tag_128:\n        /* \"#utility.yul\":1341:1344   */\n      dup3\n        /* \"#utility.yul\":1334:1371   */\n      mstore\n        /* \"#utility.yul\":1259:1377   */\n      pop\n      pop\n      jump\t// out\n        /* \"#utility.yul\":1383:1605   */\n    tag_20:\n        /* \"#utility.yul\":1476:1480   */\n      0x00\n        /* \"#utility.yul\":1514:1516   */\n      0x20\n        /* \"#utility.yul\":1503:1512   */\n      dup3\n        /* \"#utility.yul\":1499:1517   */\n      add\n        /* \"#utility.yul\":1491:1517   */\n      swap1\n      pop\n        /* \"#utility.yul\":1527:1598   */\n      tag_130\n        /* \"#utility.yul\":1595:1596   */\n      0x00\n        /* \"#utility.yul\":1584:1593   */\n      dup4\n        /* \"#utility.yul\":1580:1597   */\n      add\n        /* \"#utility.yul\":1571:1577   */\n      dup5\n        /* \"#utility.yul\":1527:1598   */\n      tag_91\n      jump\t// in\n    tag_130:\n        /* \"#utility.yul\":1383:1605   */\n      swap3\n      swap2\n      pop\n      pop\n      jump\t// out\n        /* \"#utility.yul\":1611:1780   */\n    tag_92:\n        /* \"#utility.yul\":1695:1706   */\n      0x00\n        /* \"#utility.yul\":1729:1735   */\n      dup3\n        /* \"#utility.yul\":1724:1727   */\n      dup3\n        /* \"#utility.yul\":1717:1736   */\n      mstore\n        /* \"#utility.yul\":1769:1773   */\n      0x20\n        /* \"#utility.yul\":1764:1767   */\n      dup3\n        /* \"#utility.yul\":1760:1774   */\n      add\n        /* \"#utility.yul\":1745:1774   */\n      swap1\n      pop\n        /* \"#utility.yul\":1611:1780   */\n      swap3\n      swap2\n      pop\n      pop\n      jump\t// out\n        /* \"#utility.yul\":1786:1958   */\n    tag_93:\n        /* \"#utility.yul\":1926:1950   */\n      0x6469646e27742073656e6420656e6f7567682045544800000000000000000000\n        /* \"#utility.yul\":1922:1923   */\n      0x00\n        /* \"#utility.yul\":1914:1920   */\n      dup3\n        /* \"#utility.yul\":1910:1924   */\n      add\n        /* \"#utility.yul\":1903:1951   */\n      mstore\n        /* \"#utility.yul\":1786:1958   */\n      pop\n      jump\t// out\n        /* \"#utility.yul\":1964:2330   */\n    tag_94:\n        /* \"#utility.yul\":2106:2109   */\n      0x00\n        /* \"#utility.yul\":2127:2194   */\n      tag_134\n        /* \"#utility.yul\":2191:2193   */\n      0x16\n        /* \"#utility.yul\":2186:2189   */\n      dup4\n        /* \"#utility.yul\":2127:2194   */\n      tag_92\n      jump\t// in\n    tag_134:\n        /* \"#utility.yul\":2120:2194   */\n      swap2\n      pop\n        /* \"#utility.yul\":2203:2296   */\n      tag_135\n        /* \"#utility.yul\":2292:2295   */\n      dup3\n        /* \"#utility.yul\":2203:2296   */\n      tag_93\n      jump\t// in\n    tag_135:\n        /* \"#utility.yul\":2321:2323   */\n      0x20\n        /* \"#utility.yul\":2316:2319   */\n      dup3\n        /* \"#utility.yul\":2312:2324   */\n      add\n        /* \"#utility.yul\":2305:2324   */\n      swap1\n      pop\n        /* \"#utility.yul\":1964:2330   */\n      swap2\n      swap1\n      pop\n      jump\t// out\n        /* \"#utility.yul\":2336:2755   */\n    tag_34:\n        /* \"#utility.yul\":2502:2506   */\n      0x00\n        /* \"#utility.yul\":2540:2542   */\n      0x20\n        /* \"#utility.yul\":2529:2538   */\n      dup3\n        /* \"#utility.yul\":2525:2543   */\n      add\n        /* \"#utility.yul\":2517:2543   */\n      swap1\n      pop\n        /* \"#utility.yul\":2589:2598   */\n      dup2\n        /* \"#utility.yul\":2583:2587   */\n      dup2\n        /* \"#utility.yul\":2579:2599   */\n      sub\n        /* \"#utility.yul\":2575:2576   */\n      0x00\n        /* \"#utility.yul\":2564:2573   */\n      dup4\n        /* \"#utility.yul\":2560:2577   */\n      add\n        /* \"#utility.yul\":2553:2600   */\n      mstore\n        /* \"#utility.yul\":2617:2748   */\n      tag_137\n        /* \"#utility.yul\":2743:2747   */\n      dup2\n        /* \"#utility.yul\":2617:2748   */\n      tag_94\n      jump\t// in\n    tag_137:\n        /* \"#utility.yul\":2609:2748   */\n      swap1\n      pop\n        /* \"#utility.yul\":2336:2755   */\n      swap2\n      swap1\n      pop\n      jump\t// out\n        /* \"#utility.yul\":2761:2941   */\n    tag_95:\n        /* \"#utility.yul\":2809:2886   */\n      0x4e487b7100000000000000000000000000000000000000000000000000000000\n        /* \"#utility.yul\":2806:2807   */\n      0x00\n        /* \"#utility.yul\":2799:2887   */\n      mstore\n        /* \"#utility.yul\":2906:2910   */\n      0x11\n        /* \"#utility.yul\":2903:2904   */\n      0x04\n        /* \"#utility.yul\":2896:2911   */\n      mstore\n        /* \"#utility.yul\":2930:2934   */\n      0x24\n        /* \"#utility.yul\":2927:2928   */\n      0x00\n        /* \"#utility.yul\":2920:2935   */\n      revert\n        /* \"#utility.yul\":2947:3138   */\n    tag_36:\n        /* \"#utility.yul\":2987:2990   */\n      0x00\n        /* \"#utility.yul\":3006:3026   */\n      tag_140\n        /* \"#utility.yul\":3024:3025   */\n      dup3\n        /* \"#utility.yul\":3006:3026   */\n      tag_90\n      jump\t// in\n    tag_140:\n        /* \"#utility.yul\":3001:3026   */\n      swap2\n      pop\n        /* \"#utility.yul\":3040:3060   */\n      tag_141\n        /* \"#utility.yul\":3058:3059   */\n      dup4\n        /* \"#utility.yul\":3040:3060   */\n      tag_90\n      jump\t// in\n    tag_141:\n        /* \"#utility.yul\":3035:3060   */\n      swap3\n      pop\n        /* \"#utility.yul\":3083:3084   */\n      dup3\n        /* \"#utility.yul\":3080:3081   */\n      dup3\n        /* \"#utility.yul\":3076:3085   */\n      add\n        /* \"#utility.yul\":3069:3085   */\n      swap1\n      pop\n        /* \"#utility.yul\":3104:3107   */\n      dup1\n        /* \"#utility.yul\":3101:3102   */\n      dup3\n        /* \"#utility.yul\":3098:3108   */\n      gt\n        /* \"#utility.yul\":3095:3131   */\n      iszero\n      tag_142\n      jumpi\n        /* \"#utility.yul\":3111:3129   */\n      tag_143\n      tag_95\n      jump\t// in\n    tag_143:\n        /* \"#utility.yul\":3095:3131   */\n    tag_142:\n        /* \"#utility.yul\":2947:3138   */\n      swap3\n      swap2\n      pop\n      pop\n      jump\t// out\n        /* \"#utility.yul\":3144:3324   */\n    tag_46:\n        /* \"#utility.yul\":3192:3269   */\n      0x4e487b7100000000000000000000000000000000000000000000000000000000\n        /* \"#utility.yul\":3189:3190   */\n      0x00\n        /* \"#utility.yul\":3182:3270   */\n      mstore\n        /* \"#utility.yul\":3289:3293   */\n      0x32\n        /* \"#utility.yul\":3286:3287   */\n      0x04\n        /* \"#utility.yul\":3279:3294   */\n      mstore\n        /* \"#utility.yul\":3313:3317   */\n      0x24\n        /* \"#utility.yul\":3310:3311   */\n      0x00\n        /* \"#utility.yul\":3303:3318   */\n      revert\n        /* \"#utility.yul\":3330:3510   */\n    tag_50:\n        /* \"#utility.yul\":3378:3455   */\n      0x4e487b7100000000000000000000000000000000000000000000000000000000\n        /* \"#utility.yul\":3375:3376   */\n      0x00\n        /* \"#utility.yul\":3368:3456   */\n      mstore\n        /* \"#utility.yul\":3475:3479   */\n      0x41\n        /* \"#utility.yul\":3472:3473   */\n      0x04\n        /* \"#utility.yul\":3465:3480   */\n      mstore\n        /* \"#utility.yul\":3499:3503   */\n      0x24\n        /* \"#utility.yul\":3496:3497   */\n      0x00\n        /* \"#utility.yul\":3489:3504   */\n      revert\n        /* \"#utility.yul\":3516:3663   */\n    tag_96:\n        /* \"#utility.yul\":3617:3628   */\n      0x00\n        /* \"#utility.yul\":3654:3657   */\n      dup2\n        /* \"#utility.yul\":3639:3657   */\n      swap1\n      pop\n        /* \"#utility.yul\":3516:3663   */\n      swap3\n      swap2\n      pop\n      pop\n      jump\t// out\n        /* \"#utility.yul\":3669:3783   */\n    tag_97:\n      pop\n      jump\t// out\n        /* \"#utility.yul\":3789:4187   */\n    tag_98:\n        /* \"#utility.yul\":3948:3951   */\n      0x00\n        /* \"#utility.yul\":3969:4052   */\n      tag_149\n        /* \"#utility.yul\":4050:4051   */\n      0x00\n        /* \"#utility.yul\":4045:4048   */\n      dup4\n        /* \"#utility.yul\":3969:4052   */\n      tag_96\n      jump\t// in\n    tag_149:\n        /* \"#utility.yul\":3962:4052   */\n      swap2\n      pop\n        /* \"#utility.yul\":4061:4154   */\n      tag_150\n        /* \"#utility.yul\":4150:4153   */\n      dup3\n        /* \"#utility.yul\":4061:4154   */\n      tag_97\n      jump\t// in\n    tag_150:\n        /* \"#utility.yul\":4179:4180   */\n      0x00\n        /* \"#utility.yul\":4174:4177   */\n      dup3\n        /* \"#utility.yul\":4170:4181   */\n      add\n        /* \"#utility.yul\":4163:4181   */\n      swap1\n      pop\n        /* \"#utility.yul\":3789:4187   */\n      swap2\n      swap1\n      pop\n      jump\t// out\n        /* \"#utility.yul\":4193:4572   */\n    tag_55:\n        /* \"#utility.yul\":4377:4380   */\n      0x00\n        /* \"#utility.yul\":4399:4546   */\n      tag_152\n        /* \"#utility.yul\":4542:4545   */\n      dup3\n        /* \"#utility.yul\":4399:4546   */\n      tag_98\n      jump\t// in\n    tag_152:\n        /* \"#utility.yul\":4392:4546   */\n      swap2\n      pop\n        /* \"#utility.yul\":4563:4566   */\n      dup2\n        /* \"#utility.yul\":4556:4566   */\n      swap1\n      pop\n        /* \"#utility.yul\":4193:4572   */\n      swap2\n      swap1\n      pop\n      jump\t// out\n        /* \"#utility.yul\":4578:4739   */\n    tag_99:\n        /* \"#utility.yul\":4718:4731   */\n      0x43616c6c206661696c6564000000000000000000000000000000000000000000\n        /* \"#utility.yul\":4714:4715   */\n      0x00\n        /* \"#utility.yul\":4706:4712   */\n      dup3\n        /* \"#utility.yul\":4702:4716   */\n      add\n        /* \"#utility.yul\":4695:4732   */\n      mstore\n        /* \"#utility.yul\":4578:4739   */\n      pop\n      jump\t// out\n        /* \"#utility.yul\":4745:5111   */\n    tag_100:\n        /* \"#utility.yul\":4887:4890   */\n      0x00\n        /* \"#utility.yul\":4908:4975   */\n      tag_155\n        /* \"#utility.yul\":4972:4974   */\n      0x0b\n        /* \"#utility.yul\":4967:4970   */\n      dup4\n        /* \"#utility.yul\":4908:4975   */\n      tag_92\n      jump\t// in\n    tag_155:\n        /* \"#utility.yul\":4901:4975   */\n      swap2\n      pop\n        /* \"#utility.yul\":4984:5077   */\n      tag_156\n        /* \"#utility.yul\":5073:5076   */\n      dup3\n        /* \"#utility.yul\":4984:5077   */\n      tag_99\n      jump\t// in\n    tag_156:\n        /* \"#utility.yul\":5102:5104   */\n      0x20\n        /* \"#utility.yul\":5097:5100   */\n      dup3\n        /* \"#utility.yul\":5093:5105   */\n      add\n        /* \"#utility.yul\":5086:5105   */\n      swap1\n      pop\n        /* \"#utility.yul\":4745:5111   */\n      swap2\n      swap1\n      pop\n      jump\t// out\n        /* \"#utility.yul\":5117:5536   */\n    tag_61:\n        /* \"#utility.yul\":5283:5287   */\n      0x00\n        /* \"#utility.yul\":5321:5323   */\n      0x20\n        /* \"#utility.yul\":5310:5319   */\n      dup3\n        /* \"#utility.yul\":5306:5324   */\n      add\n        /* \"#utility.yul\":5298:5324   */\n      swap1\n      pop\n        /* \"#utility.yul\":5370:5379   */\n      dup2\n        /* \"#utility.yul\":5364:5368   */\n      dup2\n        /* \"#utility.yul\":5360:5380   */\n      sub\n        /* \"#utility.yul\":5356:5357   */\n      0x00\n        /* \"#utility.yul\":5345:5354   */\n      dup4\n        /* \"#utility.yul\":5341:5358   */\n      add\n        /* \"#utility.yul\":5334:5381   */\n      mstore\n        /* \"#utility.yul\":5398:5529   */\n      tag_158\n        /* \"#utility.yul\":5524:5528   */\n      dup2\n        /* \"#utility.yul\":5398:5529   */\n      tag_100\n      jump\t// in\n    tag_158:\n        /* \"#utility.yul\":5390:5529   */\n      swap1\n      pop\n        /* \"#utility.yul\":5117:5536   */\n      swap2\n      swap1\n      pop\n      jump\t// out\n        /* \"#utility.yul\":5542:5952   */\n    tag_66:\n        /* \"#utility.yul\":5582:5589   */\n      0x00\n        /* \"#utility.yul\":5605:5625   */\n      tag_160\n        /* \"#utility.yul\":5623:5624   */\n      dup3\n        /* \"#utility.yul\":5605:5625   */\n      tag_90\n      jump\t// in\n    tag_160:\n        /* \"#utility.yul\":5600:5625   */\n      swap2\n      pop\n        /* \"#utility.yul\":5639:5659   */\n      tag_161\n        /* \"#utility.yul\":5657:5658   */\n      dup4\n        /* \"#utility.yul\":5639:5659   */\n      tag_90\n      jump\t// in\n    tag_161:\n        /* \"#utility.yul\":5634:5659   */\n      swap3\n      pop\n        /* \"#utility.yul\":5694:5695   */\n      dup3\n        /* \"#utility.yul\":5691:5692   */\n      dup3\n        /* \"#utility.yul\":5687:5696   */\n      mul\n        /* \"#utility.yul\":5716:5746   */\n      tag_162\n        /* \"#utility.yul\":5734:5745   */\n      dup2\n        /* \"#utility.yul\":5716:5746   */\n      tag_90\n      jump\t// in\n    tag_162:\n        /* \"#utility.yul\":5705:5746   */\n      swap2\n      pop\n        /* \"#utility.yul\":5895:5896   */\n      dup3\n        /* \"#utility.yul\":5886:5893   */\n      dup3\n        /* \"#utility.yul\":5882:5897   */\n      div\n        /* \"#utility.yul\":5879:5880   */\n      dup5\n        /* \"#utility.yul\":5876:5898   */\n      eq\n        /* \"#utility.yul\":5856:5857   */\n      dup4\n        /* \"#utility.yul\":5849:5858   */\n      iszero\n        /* \"#utility.yul\":5829:5912   */\n      or\n        /* \"#utility.yul\":5806:5945   */\n      tag_163\n      jumpi\n        /* \"#utility.yul\":5925:5943   */\n      tag_164\n      tag_95\n      jump\t// in\n    tag_164:\n        /* \"#utility.yul\":5806:5945   */\n    tag_163:\n        /* \"#utility.yul\":5590:5952   */\n      pop\n        /* \"#utility.yul\":5542:5952   */\n      swap3\n      swap2\n      pop\n      pop\n      jump\t// out\n        /* \"#utility.yul\":5958:6138   */\n    tag_101:\n        /* \"#utility.yul\":6006:6083   */\n      0x4e487b7100000000000000000000000000000000000000000000000000000000\n        /* \"#utility.yul\":6003:6004   */\n      0x00\n        /* \"#utility.yul\":5996:6084   */\n      mstore\n        /* \"#utility.yul\":6103:6107   */\n      0x12\n        /* \"#utility.yul\":6100:6101   */\n      0x04\n        /* \"#utility.yul\":6093:6108   */\n      mstore\n        /* \"#utility.yul\":6127:6131   */\n      0x24\n        /* \"#utility.yul\":6124:6125   */\n      0x00\n        /* \"#utility.yul\":6117:6132   */\n      revert\n        /* \"#utility.yul\":6144:6329   */\n    tag_68:\n        /* \"#utility.yul\":6184:6185   */\n      0x00\n        /* \"#utility.yul\":6201:6221   */\n      tag_167\n        /* \"#utility.yul\":6219:6220   */\n      dup3\n        /* \"#utility.yul\":6201:6221   */\n      tag_90\n      jump\t// in\n    tag_167:\n        /* \"#utility.yul\":6196:6221   */\n      swap2\n      pop\n        /* \"#utility.yul\":6235:6255   */\n      tag_168\n        /* \"#utility.yul\":6253:6254   */\n      dup4\n        /* \"#utility.yul\":6235:6255   */\n      tag_90\n      jump\t// in\n    tag_168:\n        /* \"#utility.yul\":6230:6255   */\n      swap3\n      pop\n        /* \"#utility.yul\":6274:6275   */\n      dup3\n        /* \"#utility.yul\":6264:6299   */\n      tag_169\n      jumpi\n        /* \"#utility.yul\":6279:6297   */\n      tag_170\n      tag_101\n      jump\t// in\n    tag_170:\n        /* \"#utility.yul\":6264:6299   */\n    tag_169:\n        /* \"#utility.yul\":6321:6322   */\n      dup3\n        /* \"#utility.yul\":6318:6319   */\n      dup3\n        /* \"#utility.yul\":6314:6323   */\n      div\n        /* \"#utility.yul\":6309:6323   */\n      swap1\n      pop\n        /* \"#utility.yul\":6144:6329   */\n      swap3\n      swap2\n      pop\n      pop\n      jump\t// out\n        /* \"#utility.yul\":6335:6440   */\n    tag_102:\n        /* \"#utility.yul\":6371:6378   */\n      0x00\n        /* \"#utility.yul\":6411:6433   */\n      0xffffffffffffffffffff\n        /* \"#utility.yul\":6404:6409   */\n      dup3\n        /* \"#utility.yul\":6400:6434   */\n      and\n        /* \"#utility.yul\":6389:6434   */\n      swap1\n      pop\n        /* \"#utility.yul\":6335:6440   */\n      swap2\n      swap1\n      pop\n      jump\t// out\n        /* \"#utility.yul\":6446:6566   */\n    tag_103:\n        /* \"#utility.yul\":6518:6541   */\n      tag_173\n        /* \"#utility.yul\":6535:6540   */\n      dup2\n        /* \"#utility.yul\":6518:6541   */\n      tag_102\n      jump\t// in\n    tag_173:\n        /* \"#utility.yul\":6511:6516   */\n      dup2\n        /* \"#utility.yul\":6508:6542   */\n      eq\n        /* \"#utility.yul\":6498:6560   */\n      tag_174\n      jumpi\n        /* \"#utility.yul\":6556:6557   */\n      0x00\n        /* \"#utility.yul\":6553:6554   */\n      dup1\n        /* \"#utility.yul\":6546:6558   */\n      revert\n        /* \"#utility.yul\":6498:6560   */\n    tag_174:\n        /* \"#utility.yul\":6446:6566   */\n      pop\n      jump\t// out\n        /* \"#utility.yul\":6572:6713   */\n    tag_104:\n        /* \"#utility.yul\":6628:6633   */\n      0x00\n        /* \"#utility.yul\":6659:6665   */\n      dup2\n        /* \"#utility.yul\":6653:6666   */\n      mload\n        /* \"#utility.yul\":6644:6666   */\n      swap1\n      pop\n        /* \"#utility.yul\":6675:6707   */\n      tag_176\n        /* \"#utility.yul\":6701:6706   */\n      dup2\n        /* \"#utility.yul\":6675:6707   */\n      tag_103\n      jump\t// in\n    tag_176:\n        /* \"#utility.yul\":6572:6713   */\n      swap3\n      swap2\n      pop\n      pop\n      jump\t// out\n        /* \"#utility.yul\":6719:6795   */\n    tag_105:\n        /* \"#utility.yul\":6755:6762   */\n      0x00\n        /* \"#utility.yul\":6784:6789   */\n      dup2\n        /* \"#utility.yul\":6773:6789   */\n      swap1\n      pop\n        /* \"#utility.yul\":6719:6795   */\n      swap2\n      swap1\n      pop\n      jump\t// out\n        /* \"#utility.yul\":6801:6921   */\n    tag_106:\n        /* \"#utility.yul\":6873:6896   */\n      tag_179\n        /* \"#utility.yul\":6890:6895   */\n      dup2\n        /* \"#utility.yul\":6873:6896   */\n      tag_105\n      jump\t// in\n    tag_179:\n        /* \"#utility.yul\":6866:6871   */\n      dup2\n        /* \"#utility.yul\":6863:6897   */\n      eq\n        /* \"#utility.yul\":6853:6915   */\n      tag_180\n      jumpi\n        /* \"#utility.yul\":6911:6912   */\n      0x00\n        /* \"#utility.yul\":6908:6909   */\n      dup1\n        /* \"#utility.yul\":6901:6913   */\n      revert\n        /* \"#utility.yul\":6853:6915   */\n    tag_180:\n        /* \"#utility.yul\":6801:6921   */\n      pop\n      jump\t// out\n        /* \"#utility.yul\":6927:7068   */\n    tag_107:\n        /* \"#utility.yul\":6983:6988   */\n      0x00\n        /* \"#utility.yul\":7014:7020   */\n      dup2\n        /* \"#utility.yul\":7008:7021   */\n      mload\n        /* \"#utility.yul\":6999:7021   */\n      swap1\n      pop\n        /* \"#utility.yul\":7030:7062   */\n      tag_182\n        /* \"#utility.yul\":7056:7061   */\n      dup2\n        /* \"#utility.yul\":7030:7062   */\n      tag_106\n      jump\t// in\n    tag_182:\n        /* \"#utility.yul\":6927:7068   */\n      swap3\n      swap2\n      pop\n      pop\n      jump\t// out\n        /* \"#utility.yul\":7074:7196   */\n    tag_108:\n        /* \"#utility.yul\":7147:7171   */\n      tag_184\n        /* \"#utility.yul\":7165:7170   */\n      dup2\n        /* \"#utility.yul\":7147:7171   */\n      tag_90\n      jump\t// in\n    tag_184:\n        /* \"#utility.yul\":7140:7145   */\n      dup2\n        /* \"#utility.yul\":7137:7172   */\n      eq\n        /* \"#utility.yul\":7127:7190   */\n      tag_185\n      jumpi\n        /* \"#utility.yul\":7186:7187   */\n      0x00\n        /* \"#utility.yul\":7183:7184   */\n      dup1\n        /* \"#utility.yul\":7176:7188   */\n      revert\n        /* \"#utility.yul\":7127:7190   */\n    tag_185:\n        /* \"#utility.yul\":7074:7196   */\n      pop\n      jump\t// out\n        /* \"#utility.yul\":7202:7345   */\n    tag_109:\n        /* \"#utility.yul\":7259:7264   */\n      0x00\n        /* \"#utility.yul\":7290:7296   */\n      dup2\n        /* \"#utility.yul\":7284:7297   */\n      mload\n        /* \"#utility.yul\":7275:7297   */\n      swap1\n      pop\n        /* \"#utility.yul\":7306:7339   */\n      tag_187\n        /* \"#utility.yul\":7333:7338   */\n      dup2\n        /* \"#utility.yul\":7306:7339   */\n      tag_108\n      jump\t// in\n    tag_187:\n        /* \"#utility.yul\":7202:7345   */\n      swap3\n      swap2\n      pop\n      pop\n      jump\t// out\n        /* \"#utility.yul\":7351:8322   */\n    tag_73:\n        /* \"#utility.yul\":7454:7460   */\n      0x00\n        /* \"#utility.yul\":7462:7468   */\n      dup1\n        /* \"#utility.yul\":7470:7476   */\n      0x00\n        /* \"#utility.yul\":7478:7484   */\n      dup1\n        /* \"#utility.yul\":7486:7492   */\n      0x00\n        /* \"#utility.yul\":7535:7538   */\n      0xa0\n        /* \"#utility.yul\":7523:7532   */\n      dup7\n        /* \"#utility.yul\":7514:7521   */\n      dup9\n        /* \"#utility.yul\":7510:7533   */\n      sub\n        /* \"#utility.yul\":7506:7539   */\n      slt\n        /* \"#utility.yul\":7503:7623   */\n      iszero\n      tag_189\n      jumpi\n        /* \"#utility.yul\":7542:7621   */\n      tag_190\n      tag_84\n      jump\t// in\n    tag_190:\n        /* \"#utility.yul\":7503:7623   */\n    tag_189:\n        /* \"#utility.yul\":7662:7663   */\n      0x00\n        /* \"#utility.yul\":7687:7750   */\n      tag_191\n        /* \"#utility.yul\":7742:7749   */\n      dup9\n        /* \"#utility.yul\":7733:7739   */\n      dup3\n        /* \"#utility.yul\":7722:7731   */\n      dup10\n        /* \"#utility.yul\":7718:7740   */\n      add\n        /* \"#utility.yul\":7687:7750   */\n      tag_104\n      jump\t// in\n    tag_191:\n        /* \"#utility.yul\":7677:7750   */\n      swap6\n      pop\n        /* \"#utility.yul\":7633:7760   */\n      pop\n        /* \"#utility.yul\":7799:7801   */\n      0x20\n        /* \"#utility.yul\":7825:7888   */\n      tag_192\n        /* \"#utility.yul\":7880:7887   */\n      dup9\n        /* \"#utility.yul\":7871:7877   */\n      dup3\n        /* \"#utility.yul\":7860:7869   */\n      dup10\n        /* \"#utility.yul\":7856:7878   */\n      add\n        /* \"#utility.yul\":7825:7888   */\n      tag_107\n      jump\t// in\n    tag_192:\n        /* \"#utility.yul\":7815:7888   */\n      swap5\n      pop\n        /* \"#utility.yul\":7770:7898   */\n      pop\n        /* \"#utility.yul\":7937:7939   */\n      0x40\n        /* \"#utility.yul\":7963:8027   */\n      tag_193\n        /* \"#utility.yul\":8019:8026   */\n      dup9\n        /* \"#utility.yul\":8010:8016   */\n      dup3\n        /* \"#utility.yul\":7999:8008   */\n      dup10\n        /* \"#utility.yul\":7995:8017   */\n      add\n        /* \"#utility.yul\":7963:8027   */\n      tag_109\n      jump\t// in\n    tag_193:\n        /* \"#utility.yul\":7953:8027   */\n      swap4\n      pop\n        /* \"#utility.yul\":7908:8037   */\n      pop\n        /* \"#utility.yul\":8076:8078   */\n      0x60\n        /* \"#utility.yul\":8102:8166   */\n      tag_194\n        /* \"#utility.yul\":8158:8165   */\n      dup9\n        /* \"#utility.yul\":8149:8155   */\n      dup3\n        /* \"#utility.yul\":8138:8147   */\n      dup10\n        /* \"#utility.yul\":8134:8156   */\n      add\n        /* \"#utility.yul\":8102:8166   */\n      tag_109\n      jump\t// in\n    tag_194:\n        /* \"#utility.yul\":8092:8166   */\n      swap3\n      pop\n        /* \"#utility.yul\":8047:8176   */\n      pop\n        /* \"#utility.yul\":8215:8218   */\n      0x80\n        /* \"#utility.yul\":8242:8305   */\n      tag_195\n        /* \"#utility.yul\":8297:8304   */\n      dup9\n        /* \"#utility.yul\":8288:8294   */\n      dup3\n        /* \"#utility.yul\":8277:8286   */\n      dup10\n        /* \"#utility.yul\":8273:8295   */\n      add\n        /* \"#utility.yul\":8242:8305   */\n      tag_104\n      jump\t// in\n    tag_195:\n        /* \"#utility.yul\":8232:8305   */\n      swap2\n      pop\n        /* \"#utility.yul\":8186:8315   */\n      pop\n        /* \"#utility.yul\":7351:8322   */\n      swap3\n      swap6\n      pop\n      swap3\n      swap6\n      swap1\n      swap4\n      pop\n      jump\t// out\n        /* \"#utility.yul\":8328:8884   */\n    tag_75:\n        /* \"#utility.yul\":8367:8374   */\n      0x00\n        /* \"#utility.yul\":8390:8409   */\n      tag_197\n        /* \"#utility.yul\":8407:8408   */\n      dup3\n        /* \"#utility.yul\":8390:8409   */\n      tag_105\n      jump\t// in\n    tag_197:\n        /* \"#utility.yul\":8385:8409   */\n      swap2\n      pop\n        /* \"#utility.yul\":8423:8442   */\n      tag_198\n        /* \"#utility.yul\":8440:8441   */\n      dup4\n        /* \"#utility.yul\":8423:8442   */\n      tag_105\n      jump\t// in\n    tag_198:\n        /* \"#utility.yul\":8418:8442   */\n      swap3\n      pop\n        /* \"#utility.yul\":8477:8478   */\n      dup3\n        /* \"#utility.yul\":8474:8475   */\n      dup3\n        /* \"#utility.yul\":8470:8479   */\n      mul\n        /* \"#utility.yul\":8499:8528   */\n      tag_199\n        /* \"#utility.yul\":8516:8527   */\n      dup2\n        /* \"#utility.yul\":8499:8528   */\n      tag_105\n      jump\t// in\n    tag_199:\n        /* \"#utility.yul\":8488:8528   */\n      swap2\n      pop\n        /* \"#utility.yul\":8586:8652   */\n      0x8000000000000000000000000000000000000000000000000000000000000000\n        /* \"#utility.yul\":8583:8584   */\n      dup5\n        /* \"#utility.yul\":8580:8653   */\n      eq\n        /* \"#utility.yul\":8576:8577   */\n      0x00\n        /* \"#utility.yul\":8573:8574   */\n      dup5\n        /* \"#utility.yul\":8569:8578   */\n      slt\n        /* \"#utility.yul\":8565:8654   */\n      and\n        /* \"#utility.yul\":8562:8677   */\n      iszero\n      tag_200\n      jumpi\n        /* \"#utility.yul\":8657:8675   */\n      tag_201\n      tag_95\n      jump\t// in\n    tag_201:\n        /* \"#utility.yul\":8562:8677   */\n    tag_200:\n        /* \"#utility.yul\":8827:8828   */\n      dup3\n        /* \"#utility.yul\":8818:8825   */\n      dup3\n        /* \"#utility.yul\":8813:8829   */\n      sdiv\n        /* \"#utility.yul\":8810:8811   */\n      dup5\n        /* \"#utility.yul\":8807:8830   */\n      eq\n        /* \"#utility.yul\":8787:8788   */\n      dup4\n        /* \"#utility.yul\":8780:8789   */\n      iszero\n        /* \"#utility.yul\":8760:8844   */\n      or\n        /* \"#utility.yul\":8737:8877   */\n      tag_202\n      jumpi\n        /* \"#utility.yul\":8857:8875   */\n      tag_203\n      tag_95\n      jump\t// in\n    tag_203:\n        /* \"#utility.yul\":8737:8877   */\n    tag_202:\n        /* \"#utility.yul\":8375:8884   */\n      pop\n        /* \"#utility.yul\":8328:8884   */\n      swap3\n      swap2\n      pop\n      pop\n      jump\t// out\n\n    auxdata: 0xa2646970667358221220057b2706ef013d5d80938542ac2904d774ea7ab5dc2963d7e1acf1e3a62a098264736f6c634300081a0033\n}\n",
				"bytecode": {
					"linkReferences": {},
					"object": "60a0604052348015600e575f80fd5b5060025f9054906101000a900473ffffffffffffffffffffffffffffffffffffffff1660025f6101000a81548173ffffffffffffffffffffffffffffffffffffffff021916908373ffffffffffffffffffffffffffffffffffffffff1602179055503373ffffffffffffffffffffffffffffffffffffffff1660808173ffffffffffffffffffffffffffffffffffffffff1681525050608051610aa56100bc5f395f6101ff0152610aa55ff3fe608060405260043610610042575f3560e01c80631bf6132d1461005b5780633ccfd60b146100975780636b69a592146100ad578063b60d4288146100d757610051565b366100515761004f6100e1565b005b6100596100e1565b005b348015610066575f80fd5b50610081600480360381019061007c9190610611565b6101e8565b60405161008e9190610654565b60405180910390f35b3480156100a2575f80fd5b506100ab6101fd565b005b3480156100b8575f80fd5b506100c1610428565b6040516100ce9190610654565b60405180910390f35b6100df6100e1565b005b674563918244f400006100f334610434565b1015610134576040517f08c379a000000000000000000000000000000000000000000000000000000000815260040161012b906106c7565b60405180910390fd5b3460015f3373ffffffffffffffffffffffffffffffffffffffff1673ffffffffffffffffffffffffffffffffffffffff1681526020019081526020015f205f8282546101809190610712565b925050819055505f33908060018154018082558091505060019003905f5260205f20015f9091909190916101000a81548173ffffffffffffffffffffffffffffffffffffffff021916908373ffffffffffffffffffffffffffffffffffffffff160217905550565b6001602052805f5260405f205f915090505481565b7f000000000000000000000000000000000000000000000000000000000000000073ffffffffffffffffffffffffffffffffffffffff163373ffffffffffffffffffffffffffffffffffffffff1614610282576040517f579610db00000000000000000000000000000000000000000000000000000000815260040160405180910390fd5b5f5b5f8054905081101561031e575f8082815481106102a4576102a3610745565b5b905f5260205f20015f9054906101000a900473ffffffffffffffffffffffffffffffffffffffff1690505f60015f8373ffffffffffffffffffffffffffffffffffffffff1673ffffffffffffffffffffffffffffffffffffffff1681526020019081526020015f2081905550508080600101915050610284565b505f67ffffffffffffffff81111561033957610338610772565b5b6040519080825280602002602001820160405280156103675781602001602082028036833780820191505090505b505f908051906020019061037c929190610511565b505f3373ffffffffffffffffffffffffffffffffffffffff16476040516103a2906107cc565b5f6040518083038185875af1925050503d805f81146103dc576040519150601f19603f3d011682016040523d82523d5f602084013e6103e1565b606091505b5050905080610425576040517f08c379a000000000000000000000000000000000000000000000000000000000815260040161041c9061082a565b60405180910390fd5b50565b674563918244f4000081565b5f8061043e61046c565b90505f670de0b6b3a764000084836104569190610848565b61046091906108b6565b90508092505050919050565b5f8073694aa1769357215de4fac081bf1f309adc32530690505f8173ffffffffffffffffffffffffffffffffffffffff1663feaf968c6040518163ffffffff1660e01b815260040160a060405180830381865afa1580156104cf573d5f803e3d5ffd5b505050506040513d601f19601f820116820180604052508101906104f39190610982565b5050509150506402540be4008161050a91906109f9565b9250505090565b828054828255905f5260205f20908101928215610587579160200282015b82811115610586578251825f6101000a81548173ffffffffffffffffffffffffffffffffffffffff021916908373ffffffffffffffffffffffffffffffffffffffff1602179055509160200191906001019061052f565b5b5090506105949190610598565b5090565b5b808211156105af575f815f905550600101610599565b5090565b5f80fd5b5f73ffffffffffffffffffffffffffffffffffffffff82169050919050565b5f6105e0826105b7565b9050919050565b6105f0816105d6565b81146105fa575f80fd5b50565b5f8135905061060b816105e7565b92915050565b5f60208284031215610626576106256105b3565b5b5f610633848285016105fd565b91505092915050565b5f819050919050565b61064e8161063c565b82525050565b5f6020820190506106675f830184610645565b92915050565b5f82825260208201905092915050565b7f6469646e27742073656e6420656e6f75676820455448000000000000000000005f82015250565b5f6106b160168361066d565b91506106bc8261067d565b602082019050919050565b5f6020820190508181035f8301526106de816106a5565b9050919050565b7f4e487b71000000000000000000000000000000000000000000000000000000005f52601160045260245ffd5b5f61071c8261063c565b91506107278361063c565b925082820190508082111561073f5761073e6106e5565b5b92915050565b7f4e487b71000000000000000000000000000000000000000000000000000000005f52603260045260245ffd5b7f4e487b71000000000000000000000000000000000000000000000000000000005f52604160045260245ffd5b5f81905092915050565b50565b5f6107b75f8361079f565b91506107c2826107a9565b5f82019050919050565b5f6107d6826107ac565b9150819050919050565b7f43616c6c206661696c65640000000000000000000000000000000000000000005f82015250565b5f610814600b8361066d565b915061081f826107e0565b602082019050919050565b5f6020820190508181035f83015261084181610808565b9050919050565b5f6108528261063c565b915061085d8361063c565b925082820261086b8161063c565b91508282048414831517610882576108816106e5565b5b5092915050565b7f4e487b71000000000000000000000000000000000000000000000000000000005f52601260045260245ffd5b5f6108c08261063c565b91506108cb8361063c565b9250826108db576108da610889565b5b828204905092915050565b5f69ffffffffffffffffffff82169050919050565b610904816108e6565b811461090e575f80fd5b50565b5f8151905061091f816108fb565b92915050565b5f819050919050565b61093781610925565b8114610941575f80fd5b50565b5f815190506109528161092e565b92915050565b6109618161063c565b811461096b575f80fd5b50565b5f8151905061097c81610958565b92915050565b5f805f805f60a0868803121561099b5761099a6105b3565b5b5f6109a888828901610911565b95505060206109b988828901610944565b94505060406109ca8882890161096e565b93505060606109db8882890161096e565b92505060806109ec88828901610911565b9150509295509295909350565b5f610a0382610925565b9150610a0e83610925565b9250828202610a1c81610925565b91507f800000000000000000000000000000000000000000000000000000000000000084145f84121615610a5357610a526106e5565b5b8282058414831517610a6857610a676106e5565b5b509291505056fea2646970667358221220057b2706ef013d5d80938542ac2904d774ea7ab5dc2963d7e1acf1e3a62a098264736f6c634300081a0033",
					"opcodes": "PUSH1 0xA0 PUSH1 0x40 MSTORE CALLVALUE DUP1 ISZERO PUSH1 0xE JUMPI PUSH0 DUP1 REVERT JUMPDEST POP PUSH1 0x2 PUSH0 SWAP1 SLOAD SWAP1 PUSH2 0x100 EXP SWAP1 DIV PUSH20 0xFFFFFFFFFFFFFFFFFFFFFFFFFFFFFFFFFFFFFFFF AND PUSH1 0x2 PUSH0 PUSH2 0x100 EXP DUP2 SLOAD DUP2 PUSH20 0xFFFFFFFFFFFFFFFFFFFFFFFFFFFFFFFFFFFFFFFF MUL NOT AND SWAP1 DUP4 PUSH20 0xFFFFFFFFFFFFFFFFFFFFFFFFFFFFFFFFFFFFFFFF AND MUL OR SWAP1 SSTORE POP CALLER PUSH20 0xFFFFFFFFFFFFFFFFFFFFFFFFFFFFFFFFFFFFFFFF AND PUSH1 0x80 DUP2 PUSH20 0xFFFFFFFFFFFFFFFFFFFFFFFFFFFFFFFFFFFFFFFF AND DUP2 MSTORE POP POP PUSH1 0x80 MLOAD PUSH2 0xAA5 PUSH2 0xBC PUSH0 CODECOPY PUSH0 PUSH2 0x1FF ADD MSTORE PUSH2 0xAA5 PUSH0 RETURN INVALID PUSH1 0x80 PUSH1 0x40 MSTORE PUSH1 0x4 CALLDATASIZE LT PUSH2 0x42 JUMPI PUSH0 CALLDATALOAD PUSH1 0xE0 SHR DUP1 PUSH4 0x1BF6132D EQ PUSH2 0x5B JUMPI DUP1 PUSH4 0x3CCFD60B EQ PUSH2 0x97 JUMPI DUP1 PUSH4 0x6B69A592 EQ PUSH2 0xAD JUMPI DUP1 PUSH4 0xB60D4288 EQ PUSH2 0xD7 JUMPI PUSH2 0x51 JUMP JUMPDEST CALLDATASIZE PUSH2 0x51 JUMPI PUSH2 0x4F PUSH2 0xE1 JUMP JUMPDEST STOP JUMPDEST PUSH2 0x59 PUSH2 0xE1 JUMP JUMPDEST STOP JUMPDEST CALLVALUE DUP1 ISZERO PUSH2 0x66 JUMPI PUSH0 DUP1 REVERT JUMPDEST POP PUSH2 0x81 PUSH1 0x4 DUP1 CALLDATASIZE SUB DUP2 ADD SWAP1 PUSH2 0x7C SWAP2 SWAP1 PUSH2 0x611 JUMP JUMPDEST PUSH2 0x1E8 JUMP JUMPDEST PUSH1 0x40 MLOAD PUSH2 0x8E SWAP2 SWAP1 PUSH2 0x654 JUMP JUMPDEST PUSH1 0x40 MLOAD DUP1 SWAP2 SUB SWAP1 RETURN JUMPDEST CALLVALUE DUP1 ISZERO PUSH2 0xA2 JUMPI PUSH0 DUP1 REVERT JUMPDEST POP PUSH2 0xAB PUSH2 0x1FD JUMP JUMPDEST STOP JUMPDEST CALLVALUE DUP1 ISZERO PUSH2 0xB8 JUMPI PUSH0 DUP1 REVERT JUMPDEST POP PUSH2 0xC1 PUSH2 0x428 JUMP JUMPDEST PUSH1 0x40 MLOAD PUSH2 0xCE SWAP2 SWAP1 PUSH2 0x654 JUMP JUMPDEST PUSH1 0x40 MLOAD DUP1 SWAP2 SUB SWAP1 RETURN JUMPDEST PUSH2 0xDF PUSH2 0xE1 JUMP JUMPDEST STOP JUMPDEST PUSH8 0x4563918244F40000 PUSH2 0xF3 CALLVALUE PUSH2 0x434 JUMP JUMPDEST LT ISZERO PUSH2 0x134 JUMPI PUSH1 0x40 MLOAD PUSH32 0x8C379A000000000000000000000000000000000000000000000000000000000 DUP2 MSTORE PUSH1 0x4 ADD PUSH2 0x12B SWAP1 PUSH2 0x6C7 JUMP JUMPDEST PUSH1 0x40 MLOAD DUP1 SWAP2 SUB SWAP1 REVERT JUMPDEST CALLVALUE PUSH1 0x1 PUSH0 CALLER PUSH20 0xFFFFFFFFFFFFFFFFFFFFFFFFFFFFFFFFFFFFFFFF AND PUSH20 0xFFFFFFFFFFFFFFFFFFFFFFFFFFFFFFFFFFFFFFFF AND DUP2 MSTORE PUSH1 0x20 ADD SWAP1 DUP2 MSTORE PUSH1 0x20 ADD PUSH0 KECCAK256 PUSH0 DUP3 DUP3 SLOAD PUSH2 0x180 SWAP2 SWAP1 PUSH2 0x712 JUMP JUMPDEST SWAP3 POP POP DUP2 SWAP1 SSTORE POP PUSH0 CALLER SWAP1 DUP1 PUSH1 0x1 DUP2 SLOAD ADD DUP1 DUP3 SSTORE DUP1 SWAP2 POP POP PUSH1 0x1 SWAP1 SUB SWAP1 PUSH0 MSTORE PUSH1 0x20 PUSH0 KECCAK256 ADD PUSH0 SWAP1 SWAP2 SWAP1 SWAP2 SWAP1 SWAP2 PUSH2 0x100 EXP DUP2 SLOAD DUP2 PUSH20 0xFFFFFFFFFFFFFFFFFFFFFFFFFFFFFFFFFFFFFFFF MUL NOT AND SWAP1 DUP4 PUSH20 0xFFFFFFFFFFFFFFFFFFFFFFFFFFFFFFFFFFFFFFFF AND MUL OR SWAP1 SSTORE POP JUMP JUMPDEST PUSH1 0x1 PUSH1 0x20 MSTORE DUP1 PUSH0 MSTORE PUSH1 0x40 PUSH0 KECCAK256 PUSH0 SWAP2 POP SWAP1 POP SLOAD DUP2 JUMP JUMPDEST PUSH32 0x0 PUSH20 0xFFFFFFFFFFFFFFFFFFFFFFFFFFFFFFFFFFFFFFFF AND CALLER PUSH20 0xFFFFFFFFFFFFFFFFFFFFFFFFFFFFFFFFFFFFFFFF AND EQ PUSH2 0x282 JUMPI PUSH1 0x40 MLOAD PUSH32 0x579610DB00000000000000000000000000000000000000000000000000000000 DUP2 MSTORE PUSH1 0x4 ADD PUSH1 0x40 MLOAD DUP1 SWAP2 SUB SWAP1 REVERT JUMPDEST PUSH0 JUMPDEST PUSH0 DUP1 SLOAD SWAP1 POP DUP2 LT ISZERO PUSH2 0x31E JUMPI PUSH0 DUP1 DUP3 DUP2 SLOAD DUP2 LT PUSH2 0x2A4 JUMPI PUSH2 0x2A3 PUSH2 0x745 JUMP JUMPDEST JUMPDEST SWAP1 PUSH0 MSTORE PUSH1 0x20 PUSH0 KECCAK256 ADD PUSH0 SWAP1 SLOAD SWAP1 PUSH2 0x100 EXP SWAP1 DIV PUSH20 0xFFFFFFFFFFFFFFFFFFFFFFFFFFFFFFFFFFFFFFFF AND SWAP1 POP PUSH0 PUSH1 0x1 PUSH0 DUP4 PUSH20 0xFFFFFFFFFFFFFFFFFFFFFFFFFFFFFFFFFFFFFFFF AND PUSH20 0xFFFFFFFFFFFFFFFFFFFFFFFFFFFFFFFFFFFFFFFF AND DUP2 MSTORE PUSH1 0x20 ADD SWAP1 DUP2 MSTORE PUSH1 0x20 ADD PUSH0 KECCAK256 DUP2 SWAP1 SSTORE POP POP DUP1 DUP1 PUSH1 0x1 ADD SWAP2 POP POP PUSH2 0x284 JUMP JUMPDEST POP PUSH0 PUSH8 0xFFFFFFFFFFFFFFFF DUP2 GT ISZERO PUSH2 0x339 JUMPI PUSH2 0x338 PUSH2 0x772 JUMP JUMPDEST JUMPDEST PUSH1 0x40 MLOAD SWAP1 DUP1 DUP3 MSTORE DUP1 PUSH1 0x20 MUL PUSH1 0x20 ADD DUP3 ADD PUSH1 0x40 MSTORE DUP1 ISZERO PUSH2 0x367 JUMPI DUP2 PUSH1 0x20 ADD PUSH1 0x20 DUP3 MUL DUP1 CALLDATASIZE DUP4 CALLDATACOPY DUP1 DUP3 ADD SWAP2 POP POP SWAP1 POP JUMPDEST POP PUSH0 SWAP1 DUP1 MLOAD SWAP1 PUSH1 0x20 ADD SWAP1 PUSH2 0x37C SWAP3 SWAP2 SWAP1 PUSH2 0x511 JUMP JUMPDEST POP PUSH0 CALLER PUSH20 0xFFFFFFFFFFFFFFFFFFFFFFFFFFFFFFFFFFFFFFFF AND SELFBALANCE PUSH1 0x40 MLOAD PUSH2 0x3A2 SWAP1 PUSH2 0x7CC JUMP JUMPDEST PUSH0 PUSH1 0x40 MLOAD DUP1 DUP4 SUB DUP2 DUP6 DUP8 GAS CALL SWAP3 POP POP POP RETURNDATASIZE DUP1 PUSH0 DUP2 EQ PUSH2 0x3DC JUMPI PUSH1 0x40 MLOAD SWAP2 POP PUSH1 0x1F NOT PUSH1 0x3F RETURNDATASIZE ADD AND DUP3 ADD PUSH1 0x40 MSTORE RETURNDATASIZE DUP3 MSTORE RETURNDATASIZE PUSH0 PUSH1 0x20 DUP5 ADD RETURNDATACOPY PUSH2 0x3E1 JUMP JUMPDEST PUSH1 0x60 SWAP2 POP JUMPDEST POP POP SWAP1 POP DUP1 PUSH2 0x425 JUMPI PUSH1 0x40 MLOAD PUSH32 0x8C379A000000000000000000000000000000000000000000000000000000000 DUP2 MSTORE PUSH1 0x4 ADD PUSH2 0x41C SWAP1 PUSH2 0x82A JUMP JUMPDEST PUSH1 0x40 MLOAD DUP1 SWAP2 SUB SWAP1 REVERT JUMPDEST POP JUMP JUMPDEST PUSH8 0x4563918244F40000 DUP2 JUMP JUMPDEST PUSH0 DUP1 PUSH2 0x43E PUSH2 0x46C JUMP JUMPDEST SWAP1 POP PUSH0 PUSH8 0xDE0B6B3A7640000 DUP5 DUP4 PUSH2 0x456 SWAP2 SWAP1 PUSH2 0x848 JUMP JUMPDEST PUSH2 0x460 SWAP2 SWAP1 PUSH2 0x8B6 JUMP JUMPDEST SWAP1 POP DUP1 SWAP3 POP POP POP SWAP2 SWAP1 POP JUMP JUMPDEST PUSH0 DUP1 PUSH20 0x694AA1769357215DE4FAC081BF1F309ADC325306 SWAP1 POP PUSH0 DUP2 PUSH20 0xFFFFFFFFFFFFFFFFFFFFFFFFFFFFFFFFFFFFFFFF AND PUSH4 0xFEAF968C PUSH1 0x40 MLOAD DUP2 PUSH4 0xFFFFFFFF AND PUSH1 0xE0 SHL DUP2 MSTORE PUSH1 0x4 ADD PUSH1 0xA0 PUSH1 0x40 MLOAD DUP1 DUP4 SUB DUP2 DUP7 GAS STATICCALL ISZERO DUP1 ISZERO PUSH2 0x4CF JUMPI RETURNDATASIZE PUSH0 DUP1 RETURNDATACOPY RETURNDATASIZE PUSH0 REVERT JUMPDEST POP POP POP POP PUSH1 0x40 MLOAD RETURNDATASIZE PUSH1 0x1F NOT PUSH1 0x1F DUP3 ADD AND DUP3 ADD DUP1 PUSH1 0x40 MSTORE POP DUP2 ADD SWAP1 PUSH2 0x4F3 SWAP2 SWAP1 PUSH2 0x982 JUMP JUMPDEST POP POP POP SWAP2 POP POP PUSH5 0x2540BE400 DUP2 PUSH2 0x50A SWAP2 SWAP1 PUSH2 0x9F9 JUMP JUMPDEST SWAP3 POP POP POP SWAP1 JUMP JUMPDEST DUP3 DUP1 SLOAD DUP3 DUP3 SSTORE SWAP1 PUSH0 MSTORE PUSH1 0x20 PUSH0 KECCAK256 SWAP1 DUP2 ADD SWAP3 DUP3 ISZERO PUSH2 0x587 JUMPI SWAP2 PUSH1 0x20 MUL DUP3 ADD JUMPDEST DUP3 DUP2 GT ISZERO PUSH2 0x586 JUMPI DUP3 MLOAD DUP3 PUSH0 PUSH2 0x100 EXP DUP2 SLOAD DUP2 PUSH20 0xFFFFFFFFFFFFFFFFFFFFFFFFFFFFFFFFFFFFFFFF MUL NOT AND SWAP1 DUP4 PUSH20 0xFFFFFFFFFFFFFFFFFFFFFFFFFFFFFFFFFFFFFFFF AND MUL OR SWAP1 SSTORE POP SWAP2 PUSH1 0x20 ADD SWAP2 SWAP1 PUSH1 0x1 ADD SWAP1 PUSH2 0x52F JUMP JUMPDEST JUMPDEST POP SWAP1 POP PUSH2 0x594 SWAP2 SWAP1 PUSH2 0x598 JUMP JUMPDEST POP SWAP1 JUMP JUMPDEST JUMPDEST DUP1 DUP3 GT ISZERO PUSH2 0x5AF JUMPI PUSH0 DUP2 PUSH0 SWAP1 SSTORE POP PUSH1 0x1 ADD PUSH2 0x599 JUMP JUMPDEST POP SWAP1 JUMP JUMPDEST PUSH0 DUP1 REVERT JUMPDEST PUSH0 PUSH20 0xFFFFFFFFFFFFFFFFFFFFFFFFFFFFFFFFFFFFFFFF DUP3 AND SWAP1 POP SWAP2 SWAP1 POP JUMP JUMPDEST PUSH0 PUSH2 0x5E0 DUP3 PUSH2 0x5B7 JUMP JUMPDEST SWAP1 POP SWAP2 SWAP1 POP JUMP JUMPDEST PUSH2 0x5F0 DUP2 PUSH2 0x5D6 JUMP JUMPDEST DUP2 EQ PUSH2 0x5FA JUMPI PUSH0 DUP1 REVERT JUMPDEST POP JUMP JUMPDEST PUSH0 DUP2 CALLDATALOAD SWAP1 POP PUSH2 0x60B DUP2 PUSH2 0x5E7 JUMP JUMPDEST SWAP3 SWAP2 POP POP JUMP JUMPDEST PUSH0 PUSH1 0x20 DUP3 DUP5 SUB SLT ISZERO PUSH2 0x626 JUMPI PUSH2 0x625 PUSH2 0x5B3 JUMP JUMPDEST JUMPDEST PUSH0 PUSH2 0x633 DUP5 DUP3 DUP6 ADD PUSH2 0x5FD JUMP JUMPDEST SWAP2 POP POP SWAP3 SWAP2 POP POP JUMP JUMPDEST PUSH0 DUP2 SWAP1 POP SWAP2 SWAP1 POP JUMP JUMPDEST PUSH2 0x64E DUP2 PUSH2 0x63C JUMP JUMPDEST DUP3 MSTORE POP POP JUMP JUMPDEST PUSH0 PUSH1 0x20 DUP3 ADD SWAP1 POP PUSH2 0x667 PUSH0 DUP4 ADD DUP5 PUSH2 0x645 JUMP JUMPDEST SWAP3 SWAP2 POP POP JUMP JUMPDEST PUSH0 DUP3 DUP3 MSTORE PUSH1 0x20 DUP3 ADD SWAP1 POP SWAP3 SWAP2 POP POP JUMP JUMPDEST PUSH32 0x6469646E27742073656E6420656E6F7567682045544800000000000000000000 PUSH0 DUP3 ADD MSTORE POP JUMP JUMPDEST PUSH0 PUSH2 0x6B1 PUSH1 0x16 DUP4 PUSH2 0x66D JUMP JUMPDEST SWAP2 POP PUSH2 0x6BC DUP3 PUSH2 0x67D JUMP JUMPDEST PUSH1 0x20 DUP3 ADD SWAP1 POP SWAP2 SWAP1 POP JUMP JUMPDEST PUSH0 PUSH1 0x20 DUP3 ADD SWAP1 POP DUP2 DUP2 SUB PUSH0 DUP4 ADD MSTORE PUSH2 0x6DE DUP2 PUSH2 0x6A5 JUMP JUMPDEST SWAP1 POP SWAP2 SWAP1 POP JUMP JUMPDEST PUSH32 0x4E487B7100000000000000000000000000000000000000000000000000000000 PUSH0 MSTORE PUSH1 0x11 PUSH1 0x4 MSTORE PUSH1 0x24 PUSH0 REVERT JUMPDEST PUSH0 PUSH2 0x71C DUP3 PUSH2 0x63C JUMP JUMPDEST SWAP2 POP PUSH2 0x727 DUP4 PUSH2 0x63C JUMP JUMPDEST SWAP3 POP DUP3 DUP3 ADD SWAP1 POP DUP1 DUP3 GT ISZERO PUSH2 0x73F JUMPI PUSH2 0x73E PUSH2 0x6E5 JUMP JUMPDEST JUMPDEST SWAP3 SWAP2 POP POP JUMP JUMPDEST PUSH32 0x4E487B7100000000000000000000000000000000000000000000000000000000 PUSH0 MSTORE PUSH1 0x32 PUSH1 0x4 MSTORE PUSH1 0x24 PUSH0 REVERT JUMPDEST PUSH32 0x4E487B7100000000000000000000000000000000000000000000000000000000 PUSH0 MSTORE PUSH1 0x41 PUSH1 0x4 MSTORE PUSH1 0x24 PUSH0 REVERT JUMPDEST PUSH0 DUP2 SWAP1 POP SWAP3 SWAP2 POP POP JUMP JUMPDEST POP JUMP JUMPDEST PUSH0 PUSH2 0x7B7 PUSH0 DUP4 PUSH2 0x79F JUMP JUMPDEST SWAP2 POP PUSH2 0x7C2 DUP3 PUSH2 0x7A9 JUMP JUMPDEST PUSH0 DUP3 ADD SWAP1 POP SWAP2 SWAP1 POP JUMP JUMPDEST PUSH0 PUSH2 0x7D6 DUP3 PUSH2 0x7AC JUMP JUMPDEST SWAP2 POP DUP2 SWAP1 POP SWAP2 SWAP1 POP JUMP JUMPDEST PUSH32 0x43616C6C206661696C6564000000000000000000000000000000000000000000 PUSH0 DUP3 ADD MSTORE POP JUMP JUMPDEST PUSH0 PUSH2 0x814 PUSH1 0xB DUP4 PUSH2 0x66D JUMP JUMPDEST SWAP2 POP PUSH2 0x81F DUP3 PUSH2 0x7E0 JUMP JUMPDEST PUSH1 0x20 DUP3 ADD SWAP1 POP SWAP2 SWAP1 POP JUMP JUMPDEST PUSH0 PUSH1 0x20 DUP3 ADD SWAP1 POP DUP2 DUP2 SUB PUSH0 DUP4 ADD MSTORE PUSH2 0x841 DUP2 PUSH2 0x808 JUMP JUMPDEST SWAP1 POP SWAP2 SWAP1 POP JUMP JUMPDEST PUSH0 PUSH2 0x852 DUP3 PUSH2 0x63C JUMP JUMPDEST SWAP2 POP PUSH2 0x85D DUP4 PUSH2 0x63C JUMP JUMPDEST SWAP3 POP DUP3 DUP3 MUL PUSH2 0x86B DUP2 PUSH2 0x63C JUMP JUMPDEST SWAP2 POP DUP3 DUP3 DIV DUP5 EQ DUP4 ISZERO OR PUSH2 0x882 JUMPI PUSH2 0x881 PUSH2 0x6E5 JUMP JUMPDEST JUMPDEST POP SWAP3 SWAP2 POP POP JUMP JUMPDEST PUSH32 0x4E487B7100000000000000000000000000000000000000000000000000000000 PUSH0 MSTORE PUSH1 0x12 PUSH1 0x4 MSTORE PUSH1 0x24 PUSH0 REVERT JUMPDEST PUSH0 PUSH2 0x8C0 DUP3 PUSH2 0x63C JUMP JUMPDEST SWAP2 POP PUSH2 0x8CB DUP4 PUSH2 0x63C JUMP JUMPDEST SWAP3 POP DUP3 PUSH2 0x8DB JUMPI PUSH2 0x8DA PUSH2 0x889 JUMP JUMPDEST JUMPDEST DUP3 DUP3 DIV SWAP1 POP SWAP3 SWAP2 POP POP JUMP JUMPDEST PUSH0 PUSH10 0xFFFFFFFFFFFFFFFFFFFF DUP3 AND SWAP1 POP SWAP2 SWAP1 POP JUMP JUMPDEST PUSH2 0x904 DUP2 PUSH2 0x8E6 JUMP JUMPDEST DUP2 EQ PUSH2 0x90E JUMPI PUSH0 DUP1 REVERT JUMPDEST POP JUMP JUMPDEST PUSH0 DUP2 MLOAD SWAP1 POP PUSH2 0x91F DUP2 PUSH2 0x8FB JUMP JUMPDEST SWAP3 SWAP2 POP POP JUMP JUMPDEST PUSH0 DUP2 SWAP1 POP SWAP2 SWAP1 POP JUMP JUMPDEST PUSH2 0x937 DUP2 PUSH2 0x925 JUMP JUMPDEST DUP2 EQ PUSH2 0x941 JUMPI PUSH0 DUP1 REVERT JUMPDEST POP JUMP JUMPDEST PUSH0 DUP2 MLOAD SWAP1 POP PUSH2 0x952 DUP2 PUSH2 0x92E JUMP JUMPDEST SWAP3 SWAP2 POP POP JUMP JUMPDEST PUSH2 0x961 DUP2 PUSH2 0x63C JUMP JUMPDEST DUP2 EQ PUSH2 0x96B JUMPI PUSH0 DUP1 REVERT JUMPDEST POP JUMP JUMPDEST PUSH0 DUP2 MLOAD SWAP1 POP PUSH2 0x97C DUP2 PUSH2 0x958 JUMP JUMPDEST SWAP3 SWAP2 POP POP JUMP JUMPDEST PUSH0 DUP1 PUSH0 DUP1 PUSH0 PUSH1 0xA0 DUP7 DUP9 SUB SLT ISZERO PUSH2 0x99B JUMPI PUSH2 0x99A PUSH2 0x5B3 JUMP JUMPDEST JUMPDEST PUSH0 PUSH2 0x9A8 DUP9 DUP3 DUP10 ADD PUSH2 0x911 JUMP JUMPDEST SWAP6 POP POP PUSH1 0x20 PUSH2 0x9B9 DUP9 DUP3 DUP10 ADD PUSH2 0x944 JUMP JUMPDEST SWAP5 POP POP PUSH1 0x40 PUSH2 0x9CA DUP9 DUP3 DUP10 ADD PUSH2 0x96E JUMP JUMPDEST SWAP4 POP POP PUSH1 0x60 PUSH2 0x9DB DUP9 DUP3 DUP10 ADD PUSH2 0x96E JUMP JUMPDEST SWAP3 POP POP PUSH1 0x80 PUSH2 0x9EC DUP9 DUP3 DUP10 ADD PUSH2 0x911 JUMP JUMPDEST SWAP2 POP POP SWAP3 SWAP6 POP SWAP3 SWAP6 SWAP1 SWAP4 POP JUMP JUMPDEST PUSH0 PUSH2 0xA03 DUP3 PUSH2 0x925 JUMP JUMPDEST SWAP2 POP PUSH2 0xA0E DUP4 PUSH2 0x925 JUMP JUMPDEST SWAP3 POP DUP3 DUP3 MUL PUSH2 0xA1C DUP2 PUSH2 0x925 JUMP JUMPDEST SWAP2 POP PUSH32 0x8000000000000000000000000000000000000000000000000000000000000000 DUP5 EQ PUSH0 DUP5 SLT AND ISZERO PUSH2 0xA53 JUMPI PUSH2 0xA52 PUSH2 0x6E5 JUMP JUMPDEST JUMPDEST DUP3 DUP3 SDIV DUP5 EQ DUP4 ISZERO OR PUSH2 0xA68 JUMPI PUSH2 0xA67 PUSH2 0x6E5 JUMP JUMPDEST JUMPDEST POP SWAP3 SWAP2 POP POP JUMP INVALID LOG2 PUSH5 0x6970667358 0x22 SLT KECCAK256 SDIV PUSH28 0x2706EF013D5D80938542AC2904D774EA7AB5DC2963D7E1ACF1E3A62A MULMOD DUP3 PUSH5 0x736F6C6343 STOP ADDMOD BYTE STOP CALLER "
				},
				"gasEstimates": {
					"creation": {
						"codeDepositCost": "545000",
						"executionCost": "infinite",
						"totalCost": "infinite"
					},
					"external": {
						"": "infinite",
						"MINIMUM_USD()": "347",
						"fund()": "infinite",
						"s_addressToAmountFunded(address)": "2780",
						"withdraw()": "infinite"
					}
				},
				"methodIdentifiers": {
					"MINIMUM_USD()": "6b69a592",
					"fund()": "b60d4288",
					"s_addressToAmountFunded(address)": "1bf6132d",
					"withdraw()": "3ccfd60b"
				}
			},
			"storageLayout": {
				"storage": [
					{
						"astId": 64,
						"contract": "contracts/FundMe.sol:FundMe",
						"label": "s_funders",
						"offset": 0,
						"slot": "0",
						"type": "t_array(t_address)dyn_storage"
					},
					{
						"astId": 68,
						"contract": "contracts/FundMe.sol:FundMe",
						"label": "s_addressToAmountFunded",
						"offset": 0,
						"slot": "1",
						"type": "t_mapping(t_address,t_uint256)"
					},
					{
						"astId": 71,
						"contract": "contracts/FundMe.sol:FundMe",
						"label": "s_priceFeed",
						"offset": 0,
						"slot": "2",
						"type": "t_contract(AggregatorV3Interface)45"
					}
				],
				"types": {
					"t_address": {
						"encoding": "inplace",
						"label": "address",
						"numberOfBytes": "20"
					},
					"t_array(t_address)dyn_storage": {
						"base": "t_address",
						"encoding": "dynamic_array",
						"label": "address[]",
						"numberOfBytes": "32"
					},
					"t_contract(AggregatorV3Interface)45": {
						"encoding": "inplace",
						"label": "contract AggregatorV3Interface",
						"numberOfBytes": "20"
					},
					"t_mapping(t_address,t_uint256)": {
						"encoding": "mapping",
						"key": "t_address",
						"label": "mapping(address => uint256)",
						"numberOfBytes": "32",
						"value": "t_uint256"
					},
					"t_uint256": {
						"encoding": "inplace",
						"label": "uint256",
						"numberOfBytes": "32"
					}
				}
			},
			"userdoc": {
				"kind": "user",
				"methods": {},
				"version": 1
			}
		}
	}
}